:100000000C945C000C9479000C9479000C947900A9
:100010000C9479000C9479000C9479000C94A10054
:100020000C9479000C9479000C9479000C9479006C
:100030000C9479000C9479000C9479000C9479005C
:100040000C94EB020C9479000C9479000C947900D8
:100050000C9479000C9479000C9479000C9479003C
:100060000C9479000C947900000000070002010054
:100070000003040600000000000000000102040864
:100080001020408001020408102001020408102002
:10009000040404040404040402020202020203032E
:1000A0000303030300000000250028002B000000CC
:1000B0000000240027002A0011241FBECFEFD8E043
:1000C000DEBFCDBF21E0A4E0B1E001C01D92AF349E
:1000D000B207E1F711E0A0E0B1E0E4EEF6E002C023
:1000E00005900D92A430B107D9F70E94DE020C945E
:1000F00070030C940000CF93C0E061E08C2F0E944D
:100100006F02CF5FCE30C9F78FEF87B918B8109262
:10011000B0001092B1008091B00082608093B00076
:100120008AE08093B3001092B2008091B1008660A3
:100130008093B10080917000826080937000CF91B5
:1001400008951F920F920FB60F9211242F933F9391
:100150004F935F936F937F938F939F93AF93BF93CF
:10016000EF93FF9318B885B18F7085B92B9A80E013
:1001700090E0E0910401F091050153E0EE0FFF1FC4
:100180005A95E1F7E80FF91FEA5FFE4F20812BB97E
:1001900035B121E0280F2770387F232B25B9019630
:1001A0008830910531F785B1877385B98091040155
:1001B0009091050106976CF420910401309105019E
:1001C00081E090E0022E01C0880F0A94EAF788B916
:1001D0000CC0809104019091050161E0069711F433
:1001E0008CE001C08DE00E94A802809104019091F2
:1001F000050101969093050180930401809104010B
:1002000090910501089721F41092050110920401C4
:10021000FF91EF91BF91AF919F918F917F916F91DE
:100220005F914F913F912F910F900FBE0F901F90B4
:100230001895089738F46830710520F481E048304B
:10024000510508F080E00895FF920F931F93CF931C
:10025000DF93F82EEB018A010E941901882399F09F
:10026000F80163E0EE0FFF1F6A95E1F7EC0FFD1F49
:10027000EA5FFE4F908121E030E001C0220FFA9446
:10028000EAF7922B9083DF91CF911F910F91FF900E
:100290000895FF920F931F93CF93DF93F82EEB01F6
:1002A0008A010E9419018823A1F0F80173E0EE0F82
:1002B000FF1F7A95E1F7EC0FFD1FEA5FFE4F80818B
:1002C00021E030E001C0220FFA94EAF720952823BC
:1002D0002083DF91CF911F910F91FF900895883077
:1002E000910598F420E030E043E0880F991F4A958B
:1002F000E1F74FEFFC01E20FF31FEA5FFE4F40838F
:100300002F5F3F4F28303105A9F7089588309105B8
:1003100000F571E001C0770F8A95EAF780E090E080
:1003200020E030E0AC0163E0440F551F6A95E1F72F
:10033000FA01E20FF31FEA5FFE4F6081672B6083D3
:100340002F5F3F4F2830310599F70196883091058E
:1003500039F708958830910598F420E030E04FEFA8
:10036000F901A3E0EE0FFF1FAA95E1F7E80FF91FCF
:10037000EA5FFE4F40832F5F3F4F2830310581F702
:100380000895823041F0833051F0813061F4862F3E
:1003900090E00C948601862F90E00C94AA01862FA1
:1003A00090E00C946F01089520E030E040E050E0D0
:1003B000B901B3E0660F771FBA95E1F7FB01E40FCF
:1003C000F51FEA5FFE4F80834F5F5F4F4830510556
:1003D000A9F72F5F3F4F2830310541F70895009767
:1003E00059F02AE5000000000000000000000000B5
:1003F0002150C1F70197F3CF08950F931F93CF9327
:10040000DF93082FEB0110E080E00E94D401612F00
:10041000802F0E94C101CE010E94EF011F5F1830A2
:1004200099F717E080E00E94D401612F802F0E948D
:10043000C101CE010E94EF011150A0F7DF91CF91D1
:100440001F910F9108956CE572E183E090E00E94A6
:10045000FD016CE572E182E090E00E94FD016CE537
:1004600072E181E090E00E94FD0142E050E061E035
:1004700070E080E090E00E94240142E050E061E002
:1004800070E080E090E00E944901DDCF833081F090
:1004900028F4813099F08230A1F008958630A9F0D7
:1004A0008730B9F08430D1F4809180008F7D03C013
:1004B000809180008F7780938000089584B58F7736
:1004C00002C084B58F7D84BD08958091B0008F7780
:1004D00003C08091B0008F7D8093B0000895CF93CA
:1004E000DF9390E0FC01E458FF4F2491FC01E057BA
:1004F000FF4F8491882349F190E0880F991FFC01F8
:10050000E255FF4FA591B4918C559F4FFC01C591C9
:10051000D4919FB7611108C0F8948C9120958223E3
:100520008C93888182230AC0623051F4F8948C91B4
:10053000322F309583238C938881822B888304C04B
:10054000F8948C91822B8C939FBFDF91CF9108956B
:100550000F931F93CF93DF931F92CDB7DEB7282F52
:1005600030E0F901E859FF4F8491F901E458FF4F59
:100570001491F901E057FF4F04910023C9F088233B
:1005800021F069830E9446026981E02FF0E0EE0FBE
:10059000FF1FEC55FF4FA591B4919FB7F8948C9134
:1005A000611103C01095812301C0812B8C939FBFE3
:1005B0000F90DF91CF911F910F9108950E94350305
:1005C0000E947B00C0E0D0E00E9423022097E1F36C
:1005D0000E940000F9CF1F920F920FB60F921124C4
:1005E0002F933F938F939F93AF93BF938091470136
:1005F00090914801A0914901B0914A013091460182
:1006000023E0230F2D3720F40196A11DB11D05C055
:1006100026E8230F0296A11DB11D20934601809369
:10062000470190934801A0934901B0934A018091FA
:100630004B0190914C01A0914D01B0914E0101965A
:10064000A11DB11D80934B0190934C01A0934D01CE
:10065000B0934E01BF91AF919F918F913F912F9198
:100660000F900FBE0F901F901895789484B58260FC
:1006700084BD84B5816084BD85B5826085BD85B546
:10068000816085BDEEE6F0E0808181608083E1E8F5
:10069000F0E010828081826080838081816080832D
:1006A000E0E8F0E0808181608083E1EBF0E0808130
:1006B00084608083E0EBF0E0808181608083EAE702
:1006C000F0E080818460808380818260808380818B
:1006D000816080838081806880831092C10008954A
:0406E000F894FFCFBC
:0406E4000100000011
:00000001FF
